{
  "contractName": "Carbon",
  "abi": [
    {
      "constant": true,
      "inputs": [
        {
          "name": "",
          "type": "bytes32"
        }
      ],
      "name": "carbon",
      "outputs": [
        {
          "name": "",
          "type": "uint256"
        }
      ],
      "payable": false,
      "stateMutability": "view",
      "type": "function",
      "signature": "0x1e8f637b"
    },
    {
      "constant": true,
      "inputs": [
        {
          "name": "",
          "type": "uint256"
        }
      ],
      "name": "countryList",
      "outputs": [
        {
          "name": "",
          "type": "bytes32"
        }
      ],
      "payable": false,
      "stateMutability": "view",
      "type": "function",
      "signature": "0x685142c7"
    },
    {
      "inputs": [
        {
          "name": "countries",
          "type": "bytes32[]"
        }
      ],
      "payable": false,
      "stateMutability": "nonpayable",
      "type": "constructor",
      "signature": "constructor"
    },
    {
      "constant": true,
      "inputs": [
        {
          "name": "country",
          "type": "bytes32"
        }
      ],
      "name": "totalCarbon",
      "outputs": [
        {
          "name": "",
          "type": "uint256"
        }
      ],
      "payable": false,
      "stateMutability": "view",
      "type": "function",
      "signature": "0x64688480"
    },
    {
      "constant": false,
      "inputs": [
        {
          "name": "country",
          "type": "bytes32"
        }
      ],
      "name": "buyCarbonFor",
      "outputs": [],
      "payable": false,
      "stateMutability": "nonpayable",
      "type": "function",
      "signature": "0x95b4c5b9"
    },
    {
      "constant": true,
      "inputs": [
        {
          "name": "country",
          "type": "bytes32"
        }
      ],
      "name": "validBuy",
      "outputs": [
        {
          "name": "",
          "type": "bool"
        }
      ],
      "payable": false,
      "stateMutability": "view",
      "type": "function",
      "signature": "0x28e330e2"
    }
  ],
  "bytecode": "0x608060405234801561001057600080fd5b506040516104963803806104968339810180604052602081101561003357600080fd5b81019080805164010000000081111561004b57600080fd5b8281019050602081018481111561006157600080fd5b815185602082028301116401000000008211171561007e57600080fd5b5050929190505050806001908051906020019061009c9291906100f6565b5060008090505b6001805490508110156100ef576107d06000806001848154811015156100c557fe5b906000526020600020015481526020019081526020016000208190555080806001019150506100a3565b5050610168565b828054828255906000526020600020908101928215610132579160200282015b82811115610131578251825591602001919060010190610116565b5b50905061013f9190610143565b5090565b61016591905b80821115610161576000816000905550600101610149565b5090565b90565b61031f806101776000396000f3fe60806040526004361061006d576000357c0100000000000000000000000000000000000000000000000000000000900463ffffffff1680631e8f637b1461007257806328e330e2146100c15780636468848014610114578063685142c71461016357806395b4c5b9146101b2575b600080fd5b34801561007e57600080fd5b506100ab6004803603602081101561009557600080fd5b81019080803590602001909291905050506101ed565b6040518082815260200191505060405180910390f35b3480156100cd57600080fd5b506100fa600480360360208110156100e457600080fd5b8101908080359060200190929190505050610205565b604051808215151515815260200191505060405180910390f35b34801561012057600080fd5b5061014d6004803603602081101561013757600080fd5b810190808035906020019092919050505061027c565b6040518082815260200191505060405180910390f35b34801561016f57600080fd5b5061019c6004803603602081101561018657600080fd5b8101908080359060200190929190505050610298565b6040518082815260200191505060405180910390f35b3480156101be57600080fd5b506101eb600480360360208110156101d557600080fd5b81019080803590602001909291905050506102bb565b005b60006020528060005260406000206000915090505481565b600080600090505b600180549050811015610271578260018281548110151561022a57fe5b9060005260206000200154148015610255575060016000808581526020019081526020016000205410155b15610264576001915050610277565b808060010191505061020d565b50600090505b919050565b6000806000838152602001908152602001600020549050919050565b6001818154811015156102a757fe5b906000526020600020016000915090505481565b6102c481610205565b15156102cf57600080fd5b6001600080838152602001908152602001600020600082825403925050819055505056fea165627a7a72305820331739633807f0245dd3b16e354dab36f8951b6177bd9982839ea4cc19a789b20029",
  "source": "pragma solidity ^0.5.0;\n\ncontract Carbon {\n  \n  mapping (bytes32 => uint) public carbon;\n  \n  bytes32[] public countryList;\n\n  constructor(bytes32[] memory countries) public {\n    countryList = countries;\n    for(uint i = 0;i < countryList.length;i++){\n      carbon[countryList[i]] = 2000;\n    }\n  }\n\n  function totalCarbon(bytes32 country) view public returns (uint) {\n    return carbon[country];\n  }\n\n  function buyCarbonFor(bytes32 country) public {\n    require(validBuy(country));\n    carbon[country] -= 1;\n  }\n\n  function validBuy(bytes32 country) view public returns(bool){\n    for(uint i = 0; i < countryList.length;i++){\n      if (countryList[i] == country && carbon[country] >= 1){\n        return true;\n      }\n    }\n    return false;\n  }\n}\n\n",
  "sourcePath": "/Users/shiro/carbon/contracts/Carbon.sol",
  "compiler": {
    "name": "solc",
    "version": "0.5.0+commit.1d4f565a.Emscripten.clang"
  },
  "schemaVersion": "3.0.0",
  "updatedAt": "2018-12-29T06:07:58.422Z",
  "devdoc": {
    "methods": {}
  },
  "userdoc": {
    "methods": {}
  }
}